:100000000C9453000C94AB040C9484040C947B006B
:100010000C947B000C947B000C947B000C947B0074
:100020000C947B000C947B000C947B000C947B0064
:100030000C947B000C947B000C947B000C947B0054
:100040000C943A040C947B000C9408040C94E20386
:100050000C947B000C947B000C947B000C947B0034
:100060000C947B000C947B0000000000250028000D
:100070002B0000000000240027002A0004040404D0
:100080000404040402020202020203030303030342
:10009000010204081020408001020408102001021F
:1000A00004081020E60611241FBECFEFD8E0DEBF03
:1000B000CDBF11E0A0E0B1E0E4E8FEE002C00590B1
:1000C0000D92A036B107D9F725E0A0E6B1E001C056
:1000D0001D92AC34B207E1F710E0C3E5D0E004C0F4
:1000E0002197FE010E943507C235D107C9F70E944A
:1000F000D2040C9440070C9400000895CF92DF9234
:10010000EF92FF920F931F93CF93DF936C017A01CD
:100110008B01C0E0D0E0CE15DF0589F0D8016D91EC
:100120008D01D601ED91FC910190F081E02DC60189
:100130000995892B11F47E0102C02196ECCFC701ED
:10014000DF91CF911F910F91FF90EF90DF90CF90B3
:100150000895FC01918D828D981761F0828DDF01E9
:10016000A80FB11D5D968C91928D9F5F9F73928FAA
:1001700090E008958FEF9FEF0895FC01918D828D9F
:10018000981731F0828DE80FF11D858D90E008956C
:100190008FEF9FEF0895FC01918D228D892F90E0C4
:1001A000805C9F4F821B91098F73992708958FEA76
:1001B00094E00E94CB0021E0892B09F420E0822FFB
:1001C0000895FC01848DDF01A80FB11DA35ABF4F14
:1001D0002C91848D90E001968F739927848FA68946
:1001E000B7892C93A089B1898C9180648C93938D6D
:1001F000848D981306C00288F389E02D80818F7D5D
:1002000080830895EF92FF920F931F93CF93DF9314
:10021000EC0181E0888F9B8D8C8D981305C0E88957
:10022000F989808185FD24C0F62E0B8D10E00F5FCB
:100230001F4F0F731127E02E8C8DE8120CC00FB6E4
:1002400007FCFACFE889F989808185FFF5CFCE01D7
:100250000E94E100F1CF8B8DFE01E80FF11DE35A02
:10026000FF4FF0820B8FEA89FB898081806207C093
:10027000EE89FF896083E889F989808180648083C1
:1002800081E090E0DF91CF911F910F91FF90EF906F
:100290000895CF93DF93EC01888D8823C9F0EA8914
:1002A000FB89808185FD05C0A889B9898C9186FD6F
:1002B0000FC00FB607FCF5CF808185FFF2CFA8896C
:1002C000B9898C9185FFEDCFCE010E94E100E7CF87
:1002D000DF91CF91089580E090E0892B29F00E9472
:1002E000D70081110C9400000895EF92FF920F93B4
:1002F0001F93DC018C918823F9F017FD1DC0000FBE
:10030000111FF801E257FE4F8081918182179307F8
:1003100018F04817590708F41C928091780190E072
:1003200022E0E20EF11C8E159F0531F48C9188239A
:1003300019F081E0FB0180831F910F91FF90EF90F6
:100340000895AF92BF92CF92DF92EF92FF920F93F8
:100350001F93CF93DF93BC01660F771FFB01EC5710
:10036000FE4FC080D18021E0C21AD108F601EE0F05
:10037000FF1FE257FE4F40815181EA0157FD27964A
:10038000F3E0D595C795FA95E1F79A0157FF02C0BA
:100390002D5F3F4F3595279535952795C20FD31F74
:1003A0005A01AC1ABD0AC40FD51FFB01E758FE4F16
:1003B00020813181C21AD30A8230910599F08330AD
:1003C000910599F1019709F054C0EE24E394F12CC2
:1003D00086019501AE016EEA74E084E691E00E9428
:1003E000750147C022E0E22EF12C86019501AE0195
:1003F0006EEA74E083E691E00E9475019501AE011A
:1004000063E871E082E691E00E94750180917801D5
:10041000843079F58091AE0481112BC080918301E5
:10042000811127C01092780124C08091630181114D
:100430000CC093E0E92EF12C86019501AE016EEA25
:1004400074E081E691E00E94750180916201811162
:100450000CC083E0E82EF12C86019501AE0163E823
:1004600071E080E691E00E9475018091780185300D
:1004700089F2DF91CF911F910F91FF90EF90DF9064
:10048000CF90BF90AF9008959093770180937601BD
:10049000E4E8F1E011821082138212821582148244
:1004A00017821682E9E7F1E011821082138212822C
:1004B000158214821782168281E0809361018093F5
:1004C00060018093630180936201809364011092C4
:1004D000AE0410928301809378010895CF93DF9347
:1004E0002091760130917701A9015695479556954F
:1004F0004795F901E41BF50BE817F90728F4420FBB
:10050000531F8417950708F12817390720F4DF9146
:10051000CF910C944402660F771FFB01EC57FE4FFE
:10052000208131812F3841E0340764F4D901AA0FCA
:10053000BB1FA257BE4F8D939C932F5F3F4F3183BC
:1005400020835BC01092780158C0FB01EE0FFF1FA3
:10055000DF01AC57BE4F4D915C911197EA01CC0F72
:10056000DD1FC257DE4F998388834F5F5F4F9B012A
:100570002F5F3F4F220F331FE901C758DE4F5983CA
:100580004883E901CC57DE4F59834883E758FE4F33
:10059000408151812D913C911197241B350B2031C5
:1005A000310564F080917801843021F485E08093F6
:1005B000780123C06E5F609378011FC04D935C93F8
:1005C0006130710589F024F4672B09F4A0CF15C0C0
:1005D0006230710569F06330710579F481E08093D0
:1005E00061018093600109C081E08093640105C0CE
:1005F00081E08093630180936201DF91CF91089540
:100600000F931F933FB7F89480916D0190916E0105
:10061000A0916F01B091700126B5A89B05C02F3F36
:1006200019F00196A11DB11D3FBF4427582F692F16
:100630007A2F420F511D611D711DE3E0440F551FBC
:10064000661F771FEA95D1F78091690190916A0141
:10065000A0916B01B0916C018A019B01081B190BE1
:100660002A0B3B0BD901C801F2E0B695A7959795E7
:100670008795FA95D1F7909368018093670120914F
:100680006601222319F01092660144C08931910558
:10069000F0F121E0209365014093690150936A01D4
:1006A00060936B0170936C01209178012230F1F01E
:1006B00050F4222399F0213069F560E070E01F9139
:1006C0000F910C946E022330C1F0243019F563E0D1
:1006D00070E00E946E0283E090E015C08B3613E05C
:1006E0009107C0F01F910F910C94440261E070E0FB
:1006F0000E946E0281E090E006C062E070E00E941D
:100700006E0282E090E01F910F910C94A10181E0B4
:10071000809366011F910F910895009769F0FC0185
:1007200001900020E9F73197AF01481B590BBC013C
:100730008FEA94E00C947E0080E090E008958F9220
:100740009F92AF92BF920F931F93CF93DF93CDB73A
:10075000DEB7A1970FB6F894DEBF0FBECDBF19A2CA
:10076000423008F44AE08E010F5D1F4F842E912C19
:10077000A12CB12CA50194010E941307E62FB90109
:10078000CA0101501109EA3014F4E05D01C0E95CCE
:10079000D801EC93232B242B252B61F7C8010E9451
:1007A0008D03A1960FB6F894DEBF0FBECDBFDF91CB
:1007B000CF911F910F91BF90AF909F908F90089510
:1007C0000E943B071F920F920FB60F9211242F9396
:1007D0003F934F935F936F937F938F939F93AF93C9
:1007E000BF93EF93FF938FEA94E00E94E100FF91A3
:1007F000EF91BF91AF919F918F917F916F915F9199
:100800004F913F912F910F900FBE0F901F90189511
:100810001F920F920FB60F9211242F938F939F93D5
:10082000EF93FF93E091BF04F091C0048081E091C9
:10083000C504F091C60482FD12C090818091C80465
:100840008F5F8F732091C904821751F0E091C80423
:10085000F0E0E155FB4F958F8093C80401C0808183
:10086000FF91EF919F918F912F910F900FBE0F905D
:100870001F9018951F920F920FB60F9211242F936D
:100880003F938F939F93AF93BF9380917201909109
:100890007301A0917401B09175013091710126E04E
:1008A000230F2D3720F40296A11DB11D05C029E8A4
:1008B000230F0396A11DB11D209371018093720136
:1008C00090937301A0937401B093750180916D01B1
:1008D00090916E01A0916F01B09170010196A11DE0
:1008E000B11D80936D0190936E01A0936F01B09341
:1008F0007001BF91AF919F918F913F912F910F9078
:100900000FBE0F901F9018951F920F920FB60F9267
:1009100011242F933F934F935F936F937F938F9304
:100920009F93AF93BF93EF93FF93E0910201F091F8
:1009300003010995FF91EF91BF91AF919F918F9125
:100940007F916F915F914F913F912F910F900FBECB
:100950000F901F9018951F920F920FB60F921124AF
:100960002F933F934F935F936F937F938F939F93B7
:10097000AF93BF93EF93FF93E0910001F0910101DA
:100980000995FF91EF91BF91AF919F918F917F91C9
:100990006F915F914F913F912F910F900FBE0F90EC
:1009A0001F901895CF93DF93CDB7DEB7C654D1090A
:1009B0000FB6F894DEBF0FBECDBF789484B58260C9
:1009C00084BD84B5816084BD85B5826085BD85B5F3
:1009D000816085BD80916E00816080936E00109271
:1009E00081008091810082608093810080918100EC
:1009F000816080938100809180008160809380007D
:100A00008091B10084608093B1008091B0008160DA
:100A10008093B00080917A00846080937A00809106
:100A20007A00826080937A0080917A008E7F809332
:100A30007A0080917A00806880937A001092C100D9
:100A4000E091BF04F091C00482E08083E091BB0498
:100A5000F091BC041082E091BD04F091BE0483E3E8
:100A600080831092C704E091C304F091C40486E02F
:100A70008083E091C104F091C20480818061808311
:100A8000E091C104F091C204808188608083E0918C
:100A9000C104F091C204808180688083E091C10428
:100AA000F091C20480818F7D808310927701109233
:100AB00076011092780110928501109284011092B3
:100AC000870110928601109289011092880110927C
:100AD0008B0110928A0110927A0110927901109282
:100AE0007C0110927B0110927E0110927D01109288
:100AF000800110927F011092AE04109283018091C8
:100B00000401909105018F3F2FEF920789F0823009
:100B100078F4813011F0E89801C0E998FC01FF27D2
:100B2000EE0FFF1FE050FF4F8DE790E09183808331
:100B30001092050110920401E0E9F0E02491ECE745
:100B4000F0E084918823C9F090E0880F991FFC01A0
:100B5000EE58FF4F45915491FC01E859FF4FA59184
:100B6000B4919FB7F894FA01808120958223808305
:100B70008C91E22FE823EC939FBF80E093E0909369
:100B8000010180930001809169008C7F81608093D6
:100B90006900E89A86E191E00E948D038E010F5F63
:100BA0001F4F1E01F1E22F0E311CCE01C1967C01B8
:100BB0002C0190E1490E511C8091AE0481111AC0A4
:100BC00080918301882309F4FEC080917B0190917C
:100BD0007C01FC01EE0FFF1FE257FE4F8090860163
:100BE00090908701881A990ABFEF8B1A9B0A10927E
:100BF00083010BC08090840190908501AFEF8A1A29
:100C00009A0A1092AE04EEE8F1E01AAA19AA1CAAF8
:100C10001BAA1EAA1DAA18AE1FAA1AAE19AE1CAE98
:100C20001BAE1EAE1DAE21961FAE1EAE219780E2FA
:100C3000D8011D928A95E9F780E1D1011D928A952C
:100C4000E9F72396FFAFEEAF2397A0E0B0E0A81539
:100C5000B90509F462C023966EAC7FAC2397F3010B
:100C6000619171912396FFAFEEAF2397570180E01A
:100C700090E0A501F501219131915F012115310528
:100C800021F4FA017183608318C06901D694C79476
:100C9000D694C794A901F3E056954795FA95E1F7E4
:100CA0004C0D5D1D6901C41AD50AC616D70648F554
:100CB000240F351F6217730720F5F301918380839A
:100CC0009C01220F331F220F331F200F311FF90108
:100CD000A080B180C280D380A60EB71EC11CD11CDB
:100CE000A082B182C282D382880F991F800F911F88
:100CF000FC0120A131A12F5F3F4F31A320A311960A
:100D0000A6CF01968830910509F0B3CF87E291E034
:100D10000E948D036701570120C0610148015701FE
:100D2000D6012D913D916D012115310561F040E015
:100D300050E0F40160817181828193810E941307E8
:100D4000D5012D933C93B4E08B0E911CE2E0AE0EE6
:100D5000B11CCE14DF0421F7D9CFD5016D917D915F
:100D60005D01660F771F660F771F80E090E04AE015
:100D70000E949F03A414B50481F78DE391E00E94C3
:100D80008D0384E491E00E948D03F60161917191DD
:100D90006F01660F771F660F771F80E090E04AE0D3
:100DA0000E949F03C414D50481F780E491E00E945F
:100DB0008D0380917801853031F410927801109282
:100DC000AE04109283010E946B01F6CEEFEAF4E0CC
:100DD0001382128288EE93E0A0E0B0E084839583D2
:100DE000A683B7838AE091E09183808385EC90E0CD
:100DF0009587848784EC90E09787868780EC90E0E5
:100E0000918B808B81EC90E0938B828B82EC90E0D5
:100E1000958B848B86EC90E0978B868B118E128E4F
:100E2000138E148E0895A1E21A2EAA1BBB1BFD017E
:100E30000DC0AA1FBB1FEE1FFF1FA217B307E407B9
:100E4000F50720F0A21BB30BE40BF50B661F771F11
:100E5000881F991F1A9469F76095709580959095F1
:100E60009B01AC01BD01CF010895EE0FFF1F05905E
:100E7000F491E02D099481E090E0F8940C944007FF
:040E8000F894FFCF14
:100E84007D007D00FFFF0000000002017E00CB001A
:100E9400A900BD004901537461727420736E6966C0
:100EA40066696E67210A003A73656E64326D717407
:100EB400743A5246536E69666665723A003A4F4E0A
:100EC4003A240A003A73656E64326D7174743A524E
:100ED40046536E69666665723A636F64653A0000EC
:107800000C94343C0C94513C0C94513C0C94513CE1
:107810000C94513C0C94513C0C94513C0C94513CB4
:107820000C94513C0C94513C0C94513C0C94513CA4
:107830000C94513C0C94513C0C94513C0C94513C94
:107840000C94513C0C94513C0C94513C0C94513C84
:107850000C94513C0C94513C0C94513C0C94513C74
:107860000C94513C0C94513C11241FBECFEFD8E036
:10787000DEBFCDBF11E0A0E0B1E0EAE8FFE702C063
:1078800005900D92A230B107D9F712E0A2E0B1E065
:1078900001C01D92AD30B107E1F70E942D3D0C945F
:1078A000C33F0C94003C982F95959595959595958B
:1078B000905D8F708A307CF0282F295A8091C0000B
:1078C00085FFFCCF9093C6008091C00085FFFCCF60
:1078D0002093C6000895282F205DF0CF982F809127
:1078E000C00085FFFCCF9093C6000895EF92FF92F1
:1078F0000F931F93EE24FF2487018091C00087FD22
:1079000017C00894E11CF11C011D111D81E2E8164D
:1079100081EAF80687E0080780E0180770F3E09135
:107920000401F091050109958091C00087FFE9CF1E
:107930008091C6001F910F91FF90EF9008950E94D3
:10794000763C982F8091C00085FFFCCF9093C600B5
:1079500091362CF490330CF09053892F089597555D
:10796000892F08951F930E949F3C182F0E949F3CCF
:107970001295107F810F1F9108951F93182F882350
:1079800021F00E94763C1150E1F71F9108951F935A
:10799000182F0E94763C803249F0809103018F5F5E
:1079A000809303018530C1F01F9108958091C0003C
:1079B00085FFFCCF84E18093C6008091C00085FFE5
:1079C000FCCF1093C6008091C00085FFFCCF80E102
:1079D0008093C6001F910895E0910401F091050184
:1079E00009951F9108950E94763C803241F0809164
:1079F00003018F5F80930301853081F008958091AA
:107A0000C00085FFFCCF84E18093C6008091C00058
:107A100085FFFCCF80E18093C6000895E0910401CA
:107A2000F09105010995089548EC50E08823A1F0F4
:107A30002D9A28EE33E0FA013197F1F721503040CA
:107A4000D1F72D9828EE33E0FA013197F1F7215064
:107A50003040D1F7815061F708953F924F925F9285
:107A60006F927F928F929F92AF92BF92CF92DF924E
:107A7000EF92FF920F931F93CF93DF93000082E06A
:107A80008093C00080E18093C4001092C50088E11B
:107A90008093C10086E08093C2005098589A259A3E
:107AA00081E00E94143D24E1F22E9EE1E92E85E959
:107AB000D82E0FE0C02E10E1B12EAA24A394B1E479
:107AC0009B2EA6E58A2EF2E57F2EE0E26E2E79E46B
:107AD000572E63E5462E50E5352E0E94763C8033C6
:107AE000B1F18133B9F1803409F46FC0813409F404
:107AF00076C0823409F485C0853409F488C08035A5
:107B000031F1823521F1813511F1853509F485C0D6
:107B1000863509F48DC0843609F496C0843709F49B
:107B200003C1853709F472C1863709F466C08091B4
:107B300003018F5F80930301853079F6E0910401A2
:107B4000F091050109950E94763C803351F60E9420
:107B5000F33CC3CF0E94763C803249F78091C0004D
:107B600085FFFCCFF092C6008091C00085FFFCCF5E
:107B70009092C6008091C00085FFFCCF8092C60025
:107B80008091C00085FFFCCF7092C6008091C0003C
:107B900085FFFCCF6092C6008091C00085FFFCCFBE
:107BA0005092C6008091C00085FFFCCF4092C60075
:107BB0008091C00085FFFCCF3092C6008091C0004C
:107BC00085FFFCCFB092C60088CF0E94763C8638F5
:107BD00008F4BDCF0E94763C0E94F33C7ECF0E9409
:107BE000763C803809F49CC0813809F40BC1823896
:107BF00009F430C1883909F48FC080E00E94C73C85
:107C00006CCF84E10E94BD3C0E94F33C66CF85E0CE
:107C10000E94BD3C0E94F33C60CF0E94763C809362
:107C200006010E94763C809307010E94F33C55CFE9
:107C30000E94763C803309F411C183E00E94BD3C70
:107C400080E00E94C73C49CF0E94763C80930902A5
:107C50000E94763C8093080280910C028E7F809374
:107C60000C020E94763C853409F409C18091080217
:107C700090910902892B89F000E010E00E94763C87
:107C8000F801E85FFE4F80830F5F1F4F809108026D
:107C9000909109020817190788F30E94763C8032F8
:107CA00009F045CF80910C0280FFF5C0609106017C
:107CB00070910701660F771F7093070160930601AB
:107CC000A0910802B09109021097C9F0E8E0F1E034
:107CD0009B01AD014E0F5F1FF999FECF32BD21BD53
:107CE000819180BDFA9AF99A2F5F3F4FE417F5070B
:107CF00099F76A0F7B1F70930701609306018091CB
:107D0000C00085FFFCCFF092C6008091C00085FFC7
:107D1000FCCFB092C600E1CE83E00E94C73CDDCE2E
:107D200082E00E94C73CD9CE0E94763C8093090233
:107D30000E94763C80930802809106019091070191
:107D4000880F991F90930701809306010E94763C4B
:107D5000853409F49AC080910C028E7F80930C02C6
:107D60000E94763C803209F0B8CE8091C00085FF39
:107D7000FCCFF092C600A0910802B09109021097C2
:107D8000C1F180910C02082F0170182F1695117007
:107D9000E0910601F0910701AF014F5F5F4FBA011B
:107DA00020E030E00023B1F4112339F49491809164
:107DB000C00085FFFCCF9093C6002F5F3F4FCB01E3
:107DC0000196FA012A173B0780F4BC014F5F5F4F11
:107DD000002351F3F999FECFF2BDE1BDF89A90B5B9
:107DE0008091C00085FFFCCFE6CF709307016093C0
:107DF00006018091C00085FDE5CE8091C00085FF21
:107E0000F8CFE0CE81E00E94C73C67CE0E94763C6E
:107E1000803209F08CCE8091C00085FFFCCFF092BB
:107E2000C6008091C00085FFFCCFE092C600809123
:107E3000C00085FFFCCFD092C6008091C00085FFB6
:107E4000FCCFC092C6008091C00085FFFCCFB092ED
:107E5000C60043CE80E10E94C73C3FCE0E94763CE4
:107E60000E94763C182F0E94763C112309F483C0AF
:107E7000113009F484C08FE00E94C73C2ECE80915F
:107E80000C02816080930C02F1CE80910C02816023
:107E900080930C0265CF809107018823880F880B9F
:107EA0008A2180930B028091060190910701880F2F
:107EB000991F90930701809306018091080280FF2B
:107EC00009C08091080290910902019690930902DD
:107ED00080930802F894F999FECF1127E0910601EA
:107EE000F0910701C8E0D1E0809108029091090269
:107EF000103091F40091570001700130D9F303E084
:107F000000935700E8950091570001700130D9F3B4
:107F100001E100935700E8950990199000915700EE
:107F200001700130D9F301E000935700E8951395F3
:107F3000103498F011270091570001700130D9F3E7
:107F400005E000935700E89500915700017001305B
:107F5000D9F301E100935700E8953296029709F0B2
:107F6000C7CF103011F00296E5CF11248091C000E8
:107F700085FFC5CEC8CE8EE10E94C73CAECD85E957
:0A7F80000E94C73CAACDF894FFCF81
:027F8A00800075
:040000030000780081
:00000001FF
